:020000040800F2
:1000000048070020A9010008992200081F1A0008CB
:1000100035220008191500083132000800000000E0
:10002000000000000000000000000000912900080E
:10003000391600080000000099270008912B0008DD
:10004000C3010008C3010008C3010008C301000880
:10005000C3010008C3010008C3010008C301000870
:10006000C3010008C3010008C3010008C301000860
:10007000C3010008C3010008C3010008C301000850
:10008000C3010008C3010008C3010008C301000840
:10009000C3010008C3010008C30100087716000867
:1000A000C3010008C3010008C3010008C301000820
:1000B000C3010008C3010008C3010008C301000810
:1000C000C3010008C3010008C3010008C301000800
:1000D000C3010008C3010008C3010008C3010008F0
:1000E000C3010008C3010008C301000800F002F8C2
:1000F00000F04BF80AA090E8000C82448344AAF177
:100100000107DA4501D100F040F8AFF2090EBAE874
:100110000F0013F0010F18BFFB1A43F0010318473B
:100120003C5300005C530000103A24BF78C878C1EB
:10013000FAD8520724BF30C830C144BF04680C60ED
:10014000704700000023002400250026103A28BF35
:1001500078C1FBD8520728BF30C148BF0B60704739
:10016000662904F05084002070471FB59DE8030005
:1001700000F064F900F0E2FB04000020002103F02D
:10018000B5FDE0601FBD10B510BD00F00CFD1146BF
:10019000FFF7EBFF03F0ECFB00F02AFD03B4FFF7E1
:1001A000F2FF03BC03F045F90948804709480047BE
:1001B000FEE7FEE7FEE7FEE7FEE7FEE7FEE7FEE717
:1001C000FEE7FEE704480549054A064B7047000074
:1001D000952B0008ED00000848010020480700208A
:1001E0004803002048030020704770B5064600F021
:1001F00009F9056806F10B0020F00704B4429CBF22
:10020000002070BD2B466A68BAB11068A04210D3B6
:1002100004F1080188423CBF5068586007D3516818
:10022000101941601168091B016058601460101DAD
:1002300070BD13465268002AE7D12146284600F0D7
:10024000E9F80028DED170BD0FB4044910B503AA47
:10025000029800F05DFB10BC5DF814FB600000200C
:100260002DE9F05F894604464FF0000ADFF824B11B
:10027000FB44C0F820A02046E168884700287DD0D4
:10028000252806D0D4E901219047206A401C20622D
:10029000F1E700255F462046E168884720280646AA
:1002A00007DB312E05D2B81910F8200C08B1054330
:1002B000F1E7A80701D525F00405C4F81CA0002724
:1002C000C4F818A02A2E09D0304603F0ABF838B392
:1002D00004EB8708303EC8F8186019E059F8041B91
:1002E000204604EB87029161E1688847012F0646AA
:1002F00018D1E069002820DA25F020051DE0D8F8A3
:10030000180000EB800006EB40003038C8F81800F9
:100310002046E1688847064603F084F80028EED1BD
:10032000012F0AD02E2E08D12046E16888477F1C75
:100330000646022F45F02005C4DBA069002803DA39
:10034000404245F00105A061E80701D025F0100505
:10035000A6B1A6F14100192802D8203645F400655F
:100360004A463146204625604D46FFF7F9FE60B10A
:10037000012807D0ED1D25F0070000E007E000F19F
:10038000080978E705F1040975E730467AE7206A3D
:10039000BDE8F09F9E50000010B5203AC0F00B80E1
:1003A000B1E81850203AA0E81850B1E81850A0E879
:1003B0001850BFF4F5AF5FEA027C24BFB1E81850D3
:1003C000A0E8185044BF18C918C0BDE810405FEA43
:1003D000827C24BF51F8043B40F8043B08BF7047BF
:1003E000D20728BF31F8023B48BF11F8012B28BFC4
:1003F00020F8023B48BF00F8012B70477047704758
:100400007047704700487047EC0000207047704705
:100410007047704738B504460A4600206946AFF376
:100420000080002808BF38BD02460099204600F031
:1004300089FA012038BD012000F0AEBBF8B5AFF35A
:100440000080054600200C46102000BF0646A81973
:10045000A0420DD9324669460020AFF30080070064
:1004600008BF00F099FB0098A04218BF0546C419C8
:10047000FFF7C8FF05600746F01D20F0070046198A
:10048000284600F00AF8B44208BFF8BDA21B314666
:100490003868BDE8F84000F055BA00210160C0E9B5
:1004A000011070471020704770B50446051FFFF714
:1004B000A9FF0068002C14BF446870BD002C18BF51
:1004C000AC423CBF20466468F8D301680A18AA42CF
:1004D00018BF456003D12A680546114401602868A9
:1004E0004119A1421CBF6C6070BD616869602168E0
:1004F0000844286070BD70472DE9FF4F0C461E462A
:100500004FF0FF378BB0D2E90001DDF860800A9030
:100510008A46C1F30A5505B93D46002108464FF009
:100520000000BAF1000F00F4400005DA00EB800093
:100530004FF4400101EA50004FEA9059B9F1010F20
:1005400000DDB9460A9850EA4A000ED044F6105031
:10055000A5F2FF3545432F14B8F1000F1ED07542A8
:10056000291E1EDDC9F100021CE0B8F1010F4FF099
:10057000000001D0302103E0F24305E02154401C8B
:10058000B042FBDB30460022002121540B99C1F818
:100590000880C1E900200FB0BDE8F08FBD1B6D1CC5
:1005A000DEE74A4600DA694206A800F083FA06ABA5
:1005B00093E8070003AB83E8070050460A9900F070
:1005C000A4FB8DE80700A0F500501F3800900398A9
:1005D000002D09DD42F21F014A46084403A9039099
:1005E000684600F003FE08E0A0F500504A461F38B8
:1005F00003A90390684600F00DFE8DE80700000493
:10060000000C03D04FF0FF30410800E01046B8F175
:10061000000F03D00022009215461EE0751E05D47F
:1006200000F0AAF9303262556D1EF9D5B3460122A9
:10063000084302D000227F1C04E02078302801D13A
:1006400000227F1E002A099786D01DE0112D07DAAF
:1006500000F092F9303262556D1C50EA0102F5D17A
:10066000084302D00098C8B10EE00021681E05E0E2
:10067000235C625C63542254401E491C8142F7DBB8
:10068000AB46A81B401E0990002004F80B000B98F5
:10069000099AC0F80880C0E9002B7CE711264FF0CA
:1006A000000859E72DE9F04F88460446D21D22F094
:1006B000070191B0D1E90001CDE90A0102F03CFE49
:1006C00002460B98C00F01D02D2007E0206881075B
:1006D00001D52B2002E0202101EAC000032A099065
:1006E00001D0072A05DB03464146204600F0A2F967
:1006F0000BE12078800601D5E06900E00620B8F122
:10070000650F814606D0B8F1660F18D0B8F1670FB3
:1007100070D131E00020B9F1110F009001DB1123FD
:1007200001E009F101030AAA01A90CA8FFF7E4FE00
:10073000DDE90C70002609F10105834647E0012040
:100740004B4600904FF000470AAA01A90CA8FFF7FA
:10075000D3FEDDE90DB00C995D46002610B909F114
:1007600001000D18B9EB050003D4C0F1FF3609F103
:100770000105A5EB09002BE0B9F1010F01DA4FF0FB
:1007800001090020B9F1110F0090484601DD112345
:1007900000E003460AAA01A90CA8FFF7ADFEDDE9B7
:1007A0000C704D4600268346207800070AD4AB45DE
:1007B00000DA5D4601A8012D04DD411911F8011C84
:1007C000302907D04F4502DA17F1040F04DA01206F
:1007D00082460FE06D1EEEE7002F02DCED1B3E446B
:1007E00003E0781CA84200DD7D1CB81B00F1010A63
:1007F0004FF000472078000703D4AA4501DB4FF0F3
:10080000FF3A0021B7F1004F0DF143088DF8431076
:1008100024D002202B23002F01DA7F422D230A212E
:10082000021EA0F1010000DC5FB197FBF1FC97FB19
:10083000F1F201FB1C7C17460CF1300C08F801CDDD
:10084000EEE7A8F1010003702188090501D54521D3
:1008500000E06521A0F1010800F8011C09980FA92A
:10086000A1EB0807FF1D00B10120411901EBEA705F
:10087000A1693844081A401EA0612078C00602D43D
:100880002046AFF30080099828B1D4E901219047B0
:10089000206A401C20622078C00622D52046AFF393
:1008A00000801EE0002E04DBB34502DD01A8805D60
:1008B00000E03020D4E901219047206A401C2062EA
:1008C000761CAAF101005FEA000A0AD100F036F8AE
:1008D000C0680168405CD4E901219047206A401C4F
:1008E0002062281EA5F10105DCDC07E0D4E9012126
:1008F00018F8010B9047206A401C2062381EA7F1AF
:100900000107F3DC2046AFF30080032011B043E67B
:10091000074B70B50D467B4400F079F80446284635
:1009200000F036F910B14FF0FF3070BD204670BDB9
:10093000BF2E000000487047E400002000487047C8
:1009400004010020034640688C46002818BF8842F6
:100950003CBF03464068F8D318681844884207D063
:100960000CF1030020F00700001D411A521A014645
:10097000081D0A60FFF798BD30B5B0F10A024FEAD2
:10098000900E71F100034EEA817EB0EB0E0061EB38
:1009900091014FEA101E4EEA017E10EB0E0041EB72
:1009A00011114FEA102E4EEA016E10EB0E0041EBD2
:1009B00011214FEA104E4EEA014E10EB0E0041EBB2
:1009C0001141401841F100014FEAD00040EA417066
:1009D0004FEAD10110EB80054FEA810444EA90749C
:1009E00044EB01046D1944EB0404521BA3414FF086
:1009F000000348BF0A3200D530BD401C41F1000160
:100A000030BD000001694A1C02610878704700B5DA
:100A10008FB0CDE901310021059105497944CDE937
:100A2000031011466846FFF71BFC0FB000BD000025
:100A3000E5FFFFFF2DE9F0411F460446032601684C
:100A4000072A01F4006004DB08B116A505E016A52D
:100A500003E008B115A500E015A521F01000206005
:100A6000A069C01EA0610FB1401EA0612046AFF377
:100A700000804FB1D4E9012138469047206A401CDC
:100A80002062C01C206206E0206AFAE7D4E9012156
:100A900015F8010B9047761EF8D22046AFF3008080
:100AA000BDE8F0814E414E006E616E00494E460039
:100AB000696E66002DE9F047814616468AB03348D4
:100AC00078440DC88DE80D0030487844801C03AC94
:100AD0000DC884E80D0041F69B300844372190FB97
:100AE000F1F290FBF1F5A5F1800501FB12041B3C2E
:100AF00002D56442012000E00020DFF890A080468B
:100B00000027FA44AAF1BE0A0DE0E00709D03246F8
:100B1000684607EB47010AEB810100F07BFB8DE89B
:100B2000070064107F1C002CEFD1184F7F44AC3FAE
:100B300018E0E80714D007EB04100DF1180A90E84C
:100B40000E008AE80E00C068F04201D198190890A2
:100B5000324606A903A800F05DFB03AB83E807005B
:100B60006D10641C002DE4D132466946B8F1000FC7
:100B700003A802D000F03AFB01E000F04BFBC9E90A
:100B80000001C9F808200AB0BDE8F08780490000DC
:100B9000007B00F08000704710B500F035F8BDE82C
:100BA000104000F02BB87546FFF7C4FEAE460500B6
:100BB0006946534620F00700854618B020B5FFF778
:100BC00001FBBDE820404FF000064FF000074FF05A
:100BD00000084FF0000B21F00701AC46ACE8C0095B
:100BE000ACE8C009ACE8C009ACE8C0098D46704764
:100BF0000446AFF300802046FFF7D0FA002801D06A
:100C000002F017BC7047000010B5012805D0002184
:100C100003A000F061F8012010BD09A1F8E7000071
:100C200053494752544D454D3A204F7574206F66D5
:100C30002068656170206D656D6F7279000000003D
:100C40003A2048656170206D656D6F727920636F21
:100C500072727570746564004FF0013C50F8042B9B
:100C600051F8043B9A4221D1A2EB0C03934313EABF
:100C7000CC1317D150F8042B51F8043B9A4215D1EC
:100C8000A2EB0C03934313EACC130BD150F8042BC3
:100C900051F8043B9A4209D1A2EB0C03934313EAA7
:100CA000CC13DBD04FF00000704700BFD01A01BA60
:100CB000B1FA81F101F0180122FA01F0CB40C1F143
:100CC0002001DBB2C0B2C01A2CFA01F3D11A914351
:100CD00011EAC311E6D1704770B505460C460A20EB
:100CE00000E06D1C02F0A6FB35B128780028F8D191
:100CF00002E0641C02F09EFB14B120780028F8D1B9
:100D0000BDE870400A2002F095BB5FEA400C08BFC6
:100D100091F0000F4FEA8C234FEAC12243EA515170
:100D20004FEA1C5018BF00F5F0404FEA300018BFE2
:100D300041F000415FEA6C5C00F02980BCF1FF3FAC
:100D400008BF40F080407047130C06BF12044FF0FC
:100D5000100C4FF0000C130E04BF12020CF1080C23
:100D6000130F04BF12010CF1040C930F04BF920087
:100D70000CF1020CD30F04BF52000CF1010C114610
:100D80004FF00002A0F11F00A0EB0C00704711F023
:100D9000004F08BF704731F000413FF4D5AF0B0C56
:100DA00006BF09044FF0100C4FF0000C0B0E04BFEF
:100DB00009020CF1080C0B0F04BF09010CF1040C23
:100DC0008B0F04BF89000CF1020CCB0F04BF49004C
:100DD0000CF1010CCCF12003A0EB0C0022FA03F380
:100DE00002FA0CF241EA030100F10100704720F021
:100DF0007F4C80EA030023F07F47ACEB070303F549
:100E00007C5300F0004003F1FF032DE980494FEAD5
:100E1000154B09B44FEA144325EA0B4E24EA034864
:100E20000FF2042606EB132749083E785FEA3202E8
:100E300003FB0667C7F5000707FB06F64FEA5437C2
:100E40004FEAD64606F1020607FB066CCCF1005CC1
:100E50004FEA1C472CEA074C07FB06F40CFB06F58F
:100E600004EB15464FEA961634BF00204FF00040C1
:100E70004FEAD13706FB07FC4FEA1C4C0CFB0BF783
:100E8000D21B03FB0CF761EB07010CFB0EF7B0EB79
:100E9000074072EB17420CFB08F734BFA2EB074286
:100EA000B2EB074261EB17414FEA0C444FEA91075E
:100EB00006FB07FC4FEA1C4C0CFB0BF7B0EBC740E2
:100EC00072EB573203FB0CF734BFA2EBC742B2EB15
:100ED000C74261EB57310CFB0EF7B0EBC70072EB6A
:100EE00057720CFB08F734BFA2EBC702B2EBC70284
:100EF00061EB5771039F4FEA816141EA921104EB64
:100F0000CC044FEAD1374FEA826206FB07FC42EA83
:100F100090124FEA80604FEA1C4C0CFB0BF7D21B7F
:100F200003FB0CF761EB07010CFB0EF7B0EB07407E
:100F300072EB17420CFB08F734BFA2EB0742B2EB8F
:100F4000074261EB17414FEA8C554FEA910704EBDA
:100F50009C2406FB07FC4FEA1C4C0CFB0BF7B0EB88
:100F6000C74072EB573203FB0CF734BFA2EBC7420A
:100F7000B2EBC74261EB57310CFB0EF7B0EBC70089
:100F800072EB57720CFB08F734BFA2EBC702B2EB4F
:100F9000C70261EB577115EB4C254FEA816141EABD
:100FA00092114FEA82624FEAD13742EA901206FB71
:100FB00007FC44F100044FEA80604FEA1C4C0CFB34
:100FC0000BF7D21B03FB0CF761EB07010CFB0EF7D1
:100FD000B0EB074072EB17420CFB08F734BFA2EBF3
:100FE0000742B2EB074261EB174115EB1C154FEAC4
:100FF000813141EA92414FEA823242EA90424FEA1D
:1010000080304FEA0C7644F1000448EA03434EEA8C
:101010000B484FF0000EB2EB080C71EB030724BF36
:10102000624639464EEB0E0E4FF0000B001852414F
:1010300049414BEB0B0BB2EB080C71EB03077BF157
:10104000000B24BF624639464EEB0E0E4FF0000BEC
:101050000018524149414BEB0B0BB2EB080C71EB02
:1010600003077BF1000B24BF624639464EEB0E0EA0
:1010700051EA020718BF46F0010616EB0E7655F14D
:10108000000254F1000103D5BDE88901BDE80088E4
:10109000BDE88901BDE80048B619524141EB0101A4
:1010A000A3F10103704780807F7E7D7C7B7A797815
:1010B000777676757473727171706F6E6E6D6C6C1D
:1010C0006B6A6A69686867666665646463636261BF
:1010D0006160605F5F5E5E5D5D5C5C5B5B5A5A5940
:1010E00059585857575656555555545453535252AC
:1010F0005251515050504F4F4F4E4E4D4D4D4C4C04
:101100004C4B4B4B4A4A4A4949494848484747474C
:101110004746464645454544444444434343434289
:10112000424242414141002B26D4770021D01CB5D8
:101130004FEA370703B44FF010004FF010014FF0A3
:1011400000000FBCBDE810400BF1010BBBF1010F1B
:1011500008BF5FEA170722BF12F1010211F1010176
:101160004FF0004143F1000300F0004043EA00006B
:101170007047F9D35708DAE746EA064613F1400FFD
:101180004FEA16461FDD13F1200FDFBF16430A4654
:10119000002120335B42C8D0C3F1200746EA06464F
:1011A00002FA07F74FEA164646EA0706C3F1200798
:1011B00022FA03F201FA07F721FA03F14FF00003D4
:1011C00042EA0702B1E746EA020646EA06464FEA65
:1011D000164646EA0106BCBF46EA0646360C4FF004
:1011E00000034FF000024FF000019EE72DE9C048D8
:1011F000934630B491E8380007C831EA400C48BF44
:1012000034EA430C03D5FFF7F2FDFFF78CFFF0BC87
:10121000BDE800882DE9C048934630B491E8380015
:1012200007C810F0804F08BF13F0804F03D100F0C3
:1012300005F8FFF778FFF0BCBDE8008820F07F4795
:1012400080EA030023F07F4C07EB0C03A3F57C53EB
:1012500000F00040A3F1FE0392F0000F00F0B38015
:1012600095F0000F00F077802DE901494FEA114019
:101270004FEA144621EA004800FB06FC24EA064730
:1012800008FB06F607FB08F800FB07F718EB064813
:101290004CEB164C4FEA124B18EB07484FEA154639
:1012A0004CEB174022EA0B4E0BFB06FC25EA0647E7
:1012B0000EFB06F607FB0EFE0BFB07F71EEB064EBA
:1012C0004CEB164C4FF000061EEB074E4CEB174B49
:1012D00018EB0B0840F1000018EB0E0B58EB000860
:1012E00040F100008F1A4FF000013CBFC943661B5C
:1012F00014BFB5EB040C00213CBFC943F61B4FEAF9
:1013000017444EEA8E0E27EA04454FEA1C4704FBB9
:1013100007622CEA074C05FB07F70CFB05F604FBFC
:101320000CFC16EB074642EB174216EB0C4642EB61
:101330001C421BEB060658EB0202414146EA9E06A0
:1013400001D5BDE80189B619524141EB0101A3F174
:101350000103BDE801894FEA14454FEA114724EA29
:10136000054621EA074C05FB07F406FB07F70CFBD3
:1013700006F105FB0CFC11EB074144EB17444FEA67
:10138000124711EB0C4144EB1C4422EA074C05FBCD
:1013900007F206FB07F70CFB06F605FB0CFC16EB49
:1013A000074642EB174216EB0C4642EB1C456A1807
:1013B00054F1000148BF7047B619524141EB010199
:1013C000A3F10103704795F0000F37D04FEA1142A7
:1013D0004FEA144721EA024624EA074C02FB07F1D0
:1013E00006FB07F70CFB06F402FB0CFC14EB0744AE
:1013F00041EB17414FEA154714EB0C4441EB1C41FC
:1014000025EA074C02FB07F506FB07F70CFB06F67F
:1014100002FB0CFC16EB074645EB174516EB0C469A
:1014200045EB1C42121951F1000148BF7047B61933
:10143000524141EB0101A3F1010370474FEA14450A
:101440004FEA114724EA054621EA074C05FB07F15C
:1014500006FB07F70CFB06F24FF0000605FB0CFC41
:1014600012EB074241EB174112EB0C4251EB1C41CE
:1014700048BF7047921841EB0101A3F10103704787
:1014800010B500F065FF00F045FF02F0E7FB01F04A
:1014900039F94FF6FF740021204600F06DF9002164
:1014A000204600F0B7F902F0A9F900F075FC4FF4FE
:1014B0008052BDE810405110014800F091BE00007C
:1014C0000008014070B506460F4A81F00040114601
:1014D00003F058F903F094F804460D46304603F043
:1014E0008FF80A4A0A4B02F095FF02460B4600208D
:1014F000084902F091FE22462B4602F03FFCBDE86F
:10150000704002F043BE00008FC2A53FCDCCCCCCD2
:10151000CCCCFC3F00287740FEE700002DE9F041ED
:1015200088B080460E9F0C4616461D461020FEF7DA
:101530005CFE019001988781019804600198068102
:1015400001984581019900204860019988733049CC
:10155000029130490391304904910590079006901B
:101560002E48844204D10121042001F025F92EE007
:101570002B48844204D10121082001F01DF926E006
:101580002848844204D10121102001F015F91EE001
:101590002548844204D10121202001F00DF916E0F4
:1015A0002248844204D10121402001F005F90EE0D7
:1015B0001F48844204D10121802001F0FDF806E09B
:1015C0001C48844203D10121801501F0F5F8032065
:1015D0008DF8020014208DF8030046EA0500ADF8EE
:1015E00000006946204600F077F901223146204686
:1015F00000F0FFF901222946204600F0FAF91C22EA
:1016000001A94046FEF7C8FE08B0BDE8F081000021
:1016100095280008BD1B0008811A00080008014039
:10162000000C01400010014000140140001801406E
:10163000001C014000200140704700B502464FF4F5
:101640007A7302E0184600F004F8521E501CF9D1DB
:1016500000BD00280ED000EBC000C1004FF0E0201C
:10166000416100218161052101610169C903FCD546
:1016700004210161704710B54FF48074204600F0DA
:1016800011F8012806D100F0CFFF2046BDE8104038
:1016900000F002B810BD000001490860704700006A
:1016A0001404014001460020054A12680A40044B18
:1016B00014331B680B4202D0002A00D0012070476F
:1016C0000004014030B51B4A83790168002B2AD001
:1016D00013688B431360111D0B680468A3430B60F0
:1016E000017911440B68046823430B60114C0834E2
:1016F0002168036899432160231D19680568A9437F
:1017000019604179102905D011440A680068024324
:101710000A6030BD216802681143216019680068C1
:101720000143196030BD0079104402688A430260A9
:1017300030BD00000004014070B503280ED004281D
:1017400002D00024204670BD094D284601F061FBFF
:1017500004B20021284601F038FCF3E7054D284685
:1017600001F057FB04B20021284601F02EFCE9E706
:10177000000800400004004070B588B005460E46E1
:101780000121022001F00AF80121042001F014F8DF
:1017900048228DF81F20C022ADF81C2003218DF8AF
:1017A0001E1007A9194800F097F80024ADF816405C
:1017B000ADF81240ADF81450ADF810608DF8184037
:1017C000134D04A9284601F02BFC01A801F06AFB87
:1017D000ADF804400F24ADF80C4001A9284601F0F3
:1017E0001BFB0421ADF80410ADF80C4001A92846FC
:1017F00001F012FB00231A460321284601F0F0FAFB
:101800000121284601F0E0FA08B070BD000801404F
:101810000004004070B588B005460E460121042042
:1018200000F0BCFF0121082000F0C6FF48228DF81F
:101830001F20C022ADF81C2003218DF81E1007A91F
:10184000194800F049F80024ADF81640ADF81240F0
:10185000ADF81450ADF810608DF81840134D04A980
:10186000284601F0DDFB01A801F01CFBADF80440A7
:101870000F24ADF80C4001A9284601F0CDFA04214F
:10188000ADF80410ADF80C4001A9284601F0C4FAE7
:1018900000231A460321284601F0A2FA0121284616
:1018A00001F092FA08B070BD000C01400008004041
:1018B00010B58A07120F0F23934021F00304054946
:1018C00021448C689C438C608B68904003438B6000
:1018D00010BD0000000001402DE9F0410022CC784D
:1018E00004F00F03E40601D58C7823430C784FF005
:1018F0000F0714F0FF0F4FF0010C1CD005680CFA15
:1019000002F40E882640A64211D1960007FA06F886
:1019100025EA080503FA06F848EA0505CE78282ED8
:1019200002D0482E02D002E0446100E00461521C63
:10193000082AE4D305600A88FF2A1ED945680022D8
:1019400002F108060CFA06F40E882640A64210D1D1
:10195000960007FA06F825EA080503FA06F848EAA9
:101960000505CE78282E00D14461CE78482E00D1CE
:101970000461521C082AE3D34560BDE8F0810000F1
:10198000F0B5154C002801DAE36900E06368C0F3A4
:101990000346420D120185B2C0F301579540032F53
:1019A00007D0C2020CD50322B240934343F07062C9
:1019B00009E023F07062636823F07063636002E003
:1019C000AB4343F0706201B12A43002801DAE261BF
:1019D000F0BD6260F0BD0000000001400246002042
:1019E00092680A4200D0012070474161704701614E
:1019F0007047002A01D0016170474161704770B59E
:101A000005460E464FF47A7402E0641E002C05D0A1
:101A10003146284600F010F80128F6D170BDFEE7E7
:101A2000002904D0018841F4806101807047018859
:101A300021F4806101807047034600209A8A1B8B45
:101A40001B041A4322F07F42914300D101207047CA
:101A5000002904D0018841F4807101807047018819
:101A600021F4807101807047002904D0018841F47D
:101A7000007101807047018821F400710180704776
:101A800070B50546434C20680068817B00295ED014
:101A900040680121FFF7DCFF20683F4E00683146B7
:101AA0004068FFF7ACFF206800220068017B4068B7
:101AB00000F079F82068394900684068FFF79FFF17
:101AC000206829460068406800F076F820683349AD
:101AD0000068891C4068FFF792FF206801210068B8
:101AE0004068FFF7B5FF2068314600684068FFF79F
:101AF00086FF206801220068017B406800F053F8EF
:101B00002068711C00684068FFF779FF2068002199
:101B100000684068FFF784FF206801210068406882
:101B2000FFF7A2FF20681C4900683F314068FFF7BB
:101B300066FF20680068406800F032F805462068BB
:101B4000012100684068FFF76BFF284670BD00F078
:101B5000DCFE20680068007B00F0FDFE00F0ACFEBB
:101B6000284600F0F8FE00F0A7FE00F0CEFE206848
:101B70000068007B40F0010000F0EDFE00F09CFEEC
:101B800000F0A9FE0446012000F0DAFE00F0CCFED1
:101B9000204670BD540000200100030082000700B1
:101BA000008AC0B27047002A02D041F0010101E072
:101BB00001F0FE01018270470182704770B5064650
:101BC0000D462B4C20680068817B002938D0406886
:101BD0000121FFF73DFF2068264900684068FFF7B4
:101BE0000EFF206800220068017B4068FFF7DBFFE2
:101BF0002068214900684068FFF701FF20683146EE
:101C000000684068FFF7D8FF20681B490068891EFC
:101C10004068FFF7F4FE2068294600684068FFF737
:101C2000CBFF206814490068891C4068FFF7E7FE75
:101C30002068012100684068BDE87040FFF714BFCC
:101C400000F063FE20680068007B00F084FE00F076
:101C500033FE304600F07FFE00F02EFE284600F0F6
:101C60007AFE00F029FEBDE8704000F05DBE000085
:101C700054000020010003008200070070B50B4DE6
:101C80004FF4807421462846FFF7B1FE66003146C6
:101C90002846FFF7ACFE31462846FFF7A6FE214650
:101CA0002846BDE87040FFF7A0BE0000000C0140D0
:101CB00070B5084C4FF480712046FFF798FE65150B
:101CC00029462046FFF791FE29462046BDE8704090
:101CD000FFF78DBE000C014070B5064D4FF48074C7
:101CE00021462846FFF783FE21462846BDE870407E
:101CF000FFF77BBE000C0140F0B505ACF0CCC0E9AD
:101D0000002304490022C0E90221C0E90445C0E9DA
:101D10000667F0BD0000F03F2DE9FF4782460AF15B
:101D200008000FC802F02AF804460D46DAE9062337
:101D30002046294602F022F802460B462046294654
:101D400002F0CCF806460F46DAE90089DDE9020127
:101D500042464B4602F06AFB32463B4602F05CFAD2
:101D600042464B4602F00AF880468946CAE900011D
:101D700032463B460020074902F058FB22462B46DC
:101D800002F04AFACAE9020104B040464946BDE8F9
:101D9000F08700000000F03F1FB50121042000F093
:101DA0000BFD0121084600F007FD48208DF80F00CB
:101DB0004FF48074ADF80C4003208DF80E0003A999
:101DC0001248FFF789FD08210020FFF771FD0194FB
:101DD00001248DF80A4000208DF808000C208DF8B1
:101DE000090001A8FFF76EFC4FF4A06000F088FA2C
:101DF00017208DF800008DF803408DF801408DF814
:101E00000240684600F04AFA1FBD00000008014089
:101E10002DE9FE4F80468B4E894C3C203460E168B2
:101E2000884734600546E1683B20884705EB002081
:101E300000B202F0DAF9042202F019FE6FF00E058A
:101E40002A4602F014FE01F067FF01903460E16859
:101E50003E20884734600746E1683D20884707EB0D
:101E6000002000B202F0C1F9042202F000FE2A466E
:101E700002F0FDFD01F050FF83463460E168402030
:101E8000884734600746E1683F20884707EB002019
:101E900000B202F0AAF9042202F0E9FD2A4602F09B
:101EA000E6FD01F039FF05463460E16844208847CB
:101EB00034600746E1684320884707EB002000B202
:101EC00002F048FC604902F05DFC02F099FB5F4AB9
:101ED0005F4B02F0A1F901F01FFF07463460E16893
:101EE0004620884734608146E1684520884709EBF1
:101EF000002000B202F02EFC534902F043FC02F035
:101F00007FFB524A524B02F087F901F005FF8146F0
:101F10003460E1684820884734608246E1684720A1
:101F200088470AEB002000B202F014FC464902F098
:101F300029FC02F065FB454A454B02F06DF901F0C2
:101F4000EBFE00904946DFF80C91D9F8000002F052
:101F500083FB0446C9F800003946D9F8040002F0B2
:101F60007BFBC9F804003C49204602F00BFC02F060
:101F700047FB06460F46284602F042FB82460446CF
:101F80000D465846029102F03BFB22462B4601F0DB
:101F900063FB4FF0C04B5A46304B02F03DF9304ADC
:101FA000304B01F09BFF00222F4B02F035F93246F7
:101FB0003B4601F0E3FE01F0AFFEC8F804002649FD
:101FC000D9F8040002F0DEFB02F01AFB0446DDE95A
:101FD00001070D46564602F013FB32463B4601F020
:101FE0003BFB5A46214B02F017F91D4A1D4B01F0ED
:101FF00075FF00221C4B02F00FF922462B4602F01F
:1020000015FA01F089FEC8F808001949009802F095
:10201000B9FB02F0F5FA174A174B01F0AFFE044680
:102020000D46D8F8000002F0EBFA22462B4601F0EC
:10203000A5FE01F071FEC8F80000BDE8FE8F0000AB
:10204000C8000020540000200AD7A33B5F40D422E0
:1020500047DF913F58000020D0CC4C3D6666EE3FF4
:102060004AD8124DFB210940008066406666EEBFEB
:102070000000A0413255302AA913903F2DE9F041CC
:1020800006462D4D2B4C3C202C60E16888472C6087
:102090000746E1683B20884747EA002030802C60F3
:1020A000E1683E2088472C600746E1683D2088476C
:1020B00047EA002070802C60E168402088472C604F
:1020C0000746E1683F20884747EA0020B0802C603F
:1020D000E168442088472C600746E1684320884730
:1020E00047EA0020F0802C60E168462088472C6099
:1020F0000746E1684520884747EA002030812C6088
:10210000E168482088472C600746E16847208847F7
:1021100047EA002070812C60E168422088472C60EB
:102120000746E1684120884747EA0020B081BDE8C2
:10213000F0810000C80000205400002070B5044663
:10214000264E254D80213560AA686B20904764207B
:10215000FFF773FA35600021AA686B20904720884A
:102160004FF47A71884201D9218003E0042801D21A
:10217000042020802088B1FBF0F0401EC1B2356001
:10218000AA6819209047A1793560AA68382090473D
:10219000A1783560AA681A209047E1783560AA686E
:1021A0001B20904721793560AA681C2090476179EF
:1021B0003560AA68232090470021607900B1402152
:1021C0003560AA686A2090473560AA68BDE870400B
:1021D00001216B2010470000C8000020540000209F
:1021E00010B58AB00C46D021009113460146224614
:1021F00001A8FFF793F91C2201A90D48FEF7CCF8BE
:102200004FF47A70ADF8200006208DF822001820D7
:102210008DF823008DF8240040208DF82500012042
:102220008DF8260008A8FFF789FF0AB010BD00004E
:10223000C8000020FEE7000010B5064800680068EE
:1022400041890068FFF7CAFB04460020FFF701FA46
:10225000204610BD540000200649002809680A687D
:102260001189126801D0116100E051610020FFF76F
:10227000F0B90000540000200649002809680A68E7
:102280005189126801D0116100E051610020FFF70F
:10229000E0B90000540000207047000070B50F2323
:1022A000C27801260178002A1ED0144A126802F46E
:1022B000E062C2F5E062120AC2F10404D34045783C
:1022C000A54082781A402A43120101F1E02181F8E9
:1022D0000024007800F01F018E404009800000F1CA
:1022E000E020C0F8006170BD01F01F008640480981
:1022F000800000F1E020C0F8806170BD0CED00E0CE
:102300000249084302490860704700000000FA05CE
:102310000CED00E070B50025002105F1B00000F0E3
:102320005BF90021084600F057F90021102000F069
:1023300053F900240121002000F04EF9641CE4B29E
:10234000802CF7D36D1CEDB2082DE5D370BD0000D5
:1023500038B50121082000F02FFA4FF44074ADF891
:10236000004010208DF8030003208DF8020069461C
:102370003448FFF7B1FA21463348FFF738FBC8204D
:10238000FFF75BF90021AE2000F026F90021402084
:1023900000F022F90021B02000F01EF90021C82031
:1023A00000F01AF90021812000F016F90021FF2029
:1023B00000F012F90021A12000F00EF90021A62062
:1023C00000F00AF90021A82000F006F900211F20E2
:1023D00000F002F90021D32000F0FEF800210846A9
:1023E00000F0FAF80021D52000F0F6F80021F020E6
:1023F00000F0F2F80021D92000F0EEF800212220B0
:1024000000F0EAF80021DA2000F0E6F800210220CE
:1024100000F0E2F80021DB2000F0DEF80021492086
:1024200000F0DAF800218D2000F0D6F80021142009
:1024300000F0D2F80021AF2000F0CEF8FFF76AFFDD
:1024400038BD0000000C01400014014010B50446E6
:1024500008460021B03000F0BFF8102040EA141008
:10246000002100F0B9F804F00F00BDE81040002191
:1024700000F0B2B82DE9F04180460F460024203A22
:10248000D5B2B8F17F0F02D9A046BF1CFFB2102B06
:1024900012D039464046FFF7D9FF184905EB4500F1
:1024A00001EB40050121285D00F096F8641CE4B2C0
:1024B000062CF7D3BDE8F08139464046FFF7C6FF4A
:1024C0000F4E04EB05100121305C00F085F8641C10
:1024D000E4B2082CF5D37F1CF9B24046FFF7B6FFF3
:1024E000002404EB051030440121007A00F074F858
:1024F000641CE4B2082CF4D3DCE70000FA4A0008BC
:10250000224D00082DE9F05F0646DDE90AA08B4662
:1025100091461D460027012814D106EB5A00401DA4
:10252000B9F1000F08DAC0B253462D225946FFF721
:10253000A1FFC9F1000905E0C0B253462B2259465C
:10254000FFF798FF00244FEA5A081DE0281B401EA1
:10255000C1B20A2001F0C2FBB9FBF0F00A21B0FBC6
:10256000F1F201FB120027B9691E8C4201DA78B141
:1025700001273030C2B208FB0460C0B2534659464E
:10258000FFF778FF641CE4B2AC42DFD3BDE8F09FF4
:1025900008FB0460C0B2534620225946FFF76AFF89
:1025A000F0E72DE9F04104460E461746984600250F
:1025B0000DE0434631462046FFF75CFF0834E4B2A5
:1025C000782C02D90024B61CF6B26D1CEDB27A5DEF
:1025D000002AEED1BDE8F081002902D0C0B200F09F
:1025E00094BEC0B200F07ABE70B504460D46002C11
:1025F00003DD2146002001F0C5FA002C04DC604216
:1026000001B2012001F0BEFA002D03DD29460020B1
:1026100001F0EEFA002D06DC6842BDE8704001B220
:10262000012001F0E5BA70BD2DE9F0410320FFF76C
:1026300083F8304C60800420FFF77EF8A0802E489D
:10264000FFF7E6FB2C480C30FFF718FD2A484068DE
:1026500001F0D6FF024628480B462030FFF75CFB0E
:1026600001F05AFB0546A06023480C30B0F9060083
:1026700002F070F8064601462846FEF723FF05469D
:1026800020694142B4F9040000F0D4FD054431460C
:10269000A068FEF717FF064620694142B4F9020020
:1026A00000F0C8FD0644B4F90410B4F90200A26BAE
:1026B00000F004FD0746B4F90410B4F90200A26B5F
:1026C00000F0FCFCE919361A084601F0F7FA054655
:1026D000304601F0F3FA094AA168914202DA084A49
:1026E000914201D30025002001B228B2BDE8F0419B
:1026F000FFF77ABF14000020680000200000484265
:10270000000048C230B589B00121084600F046F803
:102710000121042000F050F818208DF823000C202F
:10272000ADF8200003208DF8220008A91948FFF712
:10273000D3F84FF08045284600F0BCFB0024ADF8EC
:102740001A40ADF816404FF4FA60ADF81800ADF835
:1027500014408DF81C4005A9284600F061FC01A832
:1027600000F024FC6020ADF80400ADF80C4001201E
:10277000ADF80600ADF80A4001A9284600F0A0FB1C
:1027800001A9284600F0DEFB0121284600F01CFBD1
:1027900009B030BD0008014070470000054A00291B
:1027A00003D0D1690143D1617047D1698143D161BF
:1027B0007047000000100240054A002903D09169CB
:1027C00001439161704791698143916170470000B5
:1027D0000010024010B5264A516801F00C01254B4B
:1027E000002927D0042927D0082927D00360516861
:1027F00001F0F0010909204B5C5C0168E140416097
:10280000546804F4E064240A1C5D21FA04F4846032
:10281000546804F46054E40A1B5DD940C1605268F6
:1028200002F44042920B144B1B1F9A5CB1FBF2F175
:10283000016110BD0360DAE70360D8E7516801F475
:102840007011536803F48033022404EB914133B1D7
:1028500053689B0307D5094B59430160C7E7074BF2
:1028600059430160C3E7034B59430160BFE70000D0
:102870000010024000127A000400002000093D0010
:1028800001464FF0804000F09BBB01464FF0804076
:1028900000F098BB10B500F038F8064800680068F2
:1028A000007B00F058F800F007F8044600F03CF810
:1028B000204610BD5400002010B50120FFF7DCFCBD
:1028C0000120FFF7C9FCFFF7B7FC04460020FFF723
:1028D000C3FC204610BD70B500250120FFF7CCFCDD
:1028E000002480260120FFF7B7FCFFF7A5FC012894
:1028F00002D126FA04F005430020FFF7ADFC641C6A
:10290000E4B2082CEED3284670BD10B50120FFF7C5
:10291000B3FC0120FFF7A0FC0020FFF7ADFCBDE8F1
:1029200010400020FFF798BC10B50020FFF7A4FC72
:102930000120FFF791FCBDE810400120FFF79CBC8F
:1029400010B5FFF799FC0120FFF786FCBDE81040A9
:102950000020FFF781BC70B505460024802626FACA
:1029600004F02840FFF788FC0020FEF772FE0120EB
:10297000FFF772FC0020FEF76CFE0020FFF76CFCF6
:102980000020FEF766FE641CE4B2082CE7D370BD9D
:10299000704700002DE9F04387B0054688460320C4
:1029A0008DF81A00484804241826484F4FF48069CF
:1029B00085421CD101218803FFF7FEFE012104207E
:1029C000FFF7FAFE8DF81B60E001ADF8180006A9CC
:1029D0003846FEF781FF8DF81B40ADF8189006A928
:1029E0003846FEF779FF25208DF814003FE038487F
:1029F00085421CD101214804FFF7D0FE01210420AB
:102A0000FFF7DAFE8DF81B60ADF8184006A93846CE
:102A1000FEF762FF8DF81B400820ADF8180006A9EC
:102A20003846FEF759FF26208DF814001FE029488C
:102A300085421CD101218804FFF7B0FE0121082046
:102A4000FFF7BAFE8DF81B60ADF81890224E06A96C
:102A50003046FEF741FF8DF81B40E814ADF8180032
:102A600006A93046FEF738FF27208DF81400CDF870
:102A700004800024ADF810400C20ADF80E00ADF835
:102A80000C40ADF80A40ADF8084001A9284600F016
:102A90006DFB012240F22551284600F04CFB4FF41B
:102AA000A060FFF72DFC01208DF817008DF81500B0
:102AB0008DF8164005A8FFF7F1FB0121284600F02C
:102AC00027FB07B0BDE8F083003801400008014053
:102AD0000044004000480040000C0140AFF300807B
:102AE0000CB50022019200922748016841F4803120
:102AF00001604FF4A063016801F400310091019975
:102B0000491C0191009911B901999942F3D10168C9
:102B1000890302D50121009100E00092009901296A
:102B200030D11A490A6842F010020A600A6822F09D
:102B300003020A600A6842F002020A6041684160CA
:102B400041684160416841F480614160416821F41D
:102B50007C114160416841F4E8114160016841F035
:102B60008071016001688901FCD5416821F0030191
:102B70004160416841F0020141604168C1F3810157
:102B80000229FAD10CBD00000010024000200240D2
:102B90007047000010B50F48016841F00101016065
:102BA00041680D4A1140416001680C4A11400160C2
:102BB000016821F480210160416821F4FE01416037
:102BC0004FF41F018160FFF789FF05494FF0006056
:102BD000086010BD001002400000FFF8FFFFF6FE85
:102BE00008ED00E070B5048C24F001040484058B2A
:102BF000048C25F0F3054FF6FF7606EA0313134322
:102C00002B43104A90420ED00F4A90420BD0B0F1A5
:102C1000804F08D00D4A904205D00D4A904202D014
:102C20000C4A904205D124F002020A4342F001010D
:102C300004E024F00A020A4342F001010383018404
:102C400070BD0000002C0140003401400004004031
:102C500000080040000C0040F0B5048C24F0100483
:102C60000484068B048C4FF6FF7505EA011726F4E1
:102C7000734605EA0333334305EA02221A43104B35
:102C800098420ED00F4B98420BD0B0F1804F08D035
:102C90000D4B984205D00D4B984202D00C4B9842F8
:102CA00005D124F02001394341F0100104E024F063
:102CB000A0030B4343F0100102830184F0BD000028
:102CC000002C014000340140000400400008004096
:102CD000000C0040F0B5048C24F480740484858BCF
:102CE000048C4FF6FF7707EA012625F0F30507EA83
:102CF000031313432B43104A90420ED00F4A9042C5
:102D00000BD0B0F1804F08D00D4A904205D00D4A4B
:102D1000904202D00C4A904205D124F40071314314
:102D200041F4807104E024F420620A4342F480718B
:102D300083830184F0BD0000002C01400034014079
:102D40000004004000080040000C0040F0B5048C76
:102D500024F480540484868B048C4FF6FF7505EAB6
:102D6000013726F4734605EA0222324305EA0333AB
:102D70001343104A90420ED00F4A90420BD0B0F14C
:102D8000804F08D00D4A904205D00D4A904202D0A3
:102D90000C4A904205D124F40051394341F480514A
:102DA00004E024F402420A4342F480518383018404
:102DB000F0BD0000002C0140003401400004004040
:102DC00000080040000C0040002904D0018841F0B8
:102DD000010101807047018821F0010101807047E5
:102DE00070B50589048B068C25F007050D434FF659
:102DF000FC410C4040F201110C4326F022064FF634
:102E0000FF7101EA031111433143058104830184F9
:102E100070BD808C7047000070B505460C461D489B
:102E2000854209D01C48854206D0B5F1804F03D0B9
:102E30001A48854200D01A4820886188A2882389D0
:102E400060B1042813D008281AD02846FFF77EFF67
:102E5000E1882846BDE8704000F0D5B82846FFF765
:102E6000C1FEE1882846BDE8704000F0B0B82846B1
:102E7000FFF7F2FEE1882846BDE8704000F0AFB8E9
:102E80002846FFF727FFE1882846BDE8704000F09C
:102E9000B2B80000002C01400034014000040040A2
:102EA0000008004000210180418001228280C18011
:102EB00001817047018921F00701018170470000FD
:102EC00070B5028C22F480720284028C8388848B19
:102ED00024F0700424F003040D88254322F40072CA
:102EE0000E894FF6FF7404EA062616434A8804EA60
:102EF00002223243114EB04202D0114EB04217D1DD
:102F000022F400664A8904EA0222324322F48066EF
:102F10008A8804EA0222324323F4805323F40053C4
:102F20008E8904EA06161E43CB8904EA0313334351
:102F300083808583C9888187028470BD002C01400D
:102F40000034014070B5028C22F480520284058C5A
:102F50008288838B23F4E04323F440760C884FF679
:102F6000FF7303EA0424344325F400550E8903EA71
:102F700006362E434D8803EA05353543094EB042E7
:102F800002D0094EB04205D122F480468A8903EA74
:102F90008212324382808483C988A0F8401005845D
:102FA00070BD0000002C0140003401400021018070
:102FB00041808180C180018141818181C1817047CF
:102FC00081877047A0F84010704781847047028B5A
:102FD00022F00C020283028B0A4302837047028BA9
:102FE00022F440620283028B4FF6FF7303EA012151
:102FF0000A4302837047828B22F00C028283828B09
:103000000A4382837047828B22F440628283828BE0
:103010004FF6FF7303EA01210A43828370470000E1
:1030200030B502881B4C1C4DA0420DD0A8420BD0DD
:10303000B0F1804F08D0194B984205D0184B9842F8
:1030400002D0184B984203D122F070034A881A43E9
:10305000154B984206D0154B984203D022F440738A
:10306000CA881A4302808A8882850A880285A0421B
:103070000AD0A84208D00E4A904205D00D4A90428C
:1030800002D00D4A904201D1097A01860121818244
:1030900030BD0000002C014000340140000400401D
:1030A00000080040000C00400010004000140040E8
:1030B00000400140004401400048014070B5401A02
:1030C0008418114D286B2044286341F27201884214
:1030D00000DD29630D48296B814200DA2863286BE3
:1030E00001F038FBE96A01F04DFB0646204601F08D
:1030F00031FBA96A01F046FB314601F0ADFABDE8AB
:10310000704001F00BBB0000140000208EEFFFFFA9
:10311000002904D0818941F400518181704781895F
:1031200021F40051818170470246002012880A4232
:1031300000D00120704710B540F66A13C1F3421366
:1031400001F01F040121A140012B07D0022B07D061
:1031500014303AB102680A43026010BD0C30F8E73F
:103160001030F6E702688A43026010BD30B585B0C2
:1031700004460D46208A4CF6FF710840E988014359
:103180002182A0894EF6F3110840A9882A891143AB
:103190006A8902431143A181A08A4FF6FF4108408A
:1031A000A9890143A1826846FFF714FB1D488442A8
:1031B00001D1039800E00298A189090408D500EB29
:1031C000C00101EB001029684900B0FBF1F007E0F5
:1031D00000EBC00101EB001029688900B0FBF1F0A1
:1031E0006422B0FBF2F109010B096FF018056B4383
:1031F00000EB8300A3891D044FF0320307D503EBD6
:10320000C000B0FBF2F000F00700084306E003EB5B
:103210000010B0FBF2F000F00F000843208105B071
:1032200030BD000000380140C1F3080181807047C3
:10323000FEE7000070B5441A104D286A2044286249
:1032400041F27201884200DD29620D48296A8142FB
:1032500000DA2862286A01F07DFAE96901F092FA41
:103260000646204601F076FAA96901F08BFA31464C
:1032700001F0F2F9BDE8704001F050BA14000020EE
:103280008EEFFFFF2DE9F0410446134F4FF4807697
:1032900031463846FEF7A9FB00254FF4007804F0CC
:1032A0008000802813D041463846FEF79EFB60061A
:1032B000040E31463846FEF79AFB31463846FEF793
:1032C00094FB6D1CEDB2082DE9D3BDE8F0814146B9
:1032D0003846FEF78CFBEAE7000C014010B50446C7
:1032E000FEF7CCFC7820FFF7CDFFFEF7F5FC0020C1
:1032F000FFF7C8FFFEF7F0FC2046FFF7C3FFFEF71D
:10330000EBFCBDE81040FEF7D3BC10B50446FEF759
:10331000B5FC7820FFF7B6FFFEF7DEFC4020FFF794
:10332000B1FFFEF7D9FC2046FFF7ACFFFEF7D4FC57
:10333000BDE81040FEF7BCBC490050EAC12018BFF0
:1033400004204A0D18BF40F0010040F2FF72B2EBBA
:10335000515F08BF40F00200012808BF05207047F8
:103360002DE9F0414F1E00EBC7010446D1E90001F1
:1033700015461E4637F006020DD02A46334600F0A9
:103380004BFF7F1E04EBC703D3E9002300F0F6FCDC
:1033900037F00602F1D1022F25D0042F13D0062FCB
:1033A00018BFBDE8F0812A46334600F035FFD4E966
:1033B0000A2300F0E3FC2A46334600F02DFFD4E94F
:1033C000082300F0DBFC2A46334600F025FFD4E951
:1033D000062300F0D3FC2A46334600F01DFFD4E953
:1033E000042300F0CBFC2A46334600F015FFD4E955
:1033F000022300F0C3FC2A46334600F00DFFD4E957
:103400000023BDE8F04100F0B9BC012201F02FBB60
:1034100000F0B4BC024A0020110701F028BB0000F4
:1034200001FDFFFF30380A2801D20120704700203B
:1034300070477047704700002DE9F84F04460D466D
:1034400021F0004000917349814211DC72498842A9
:1034500001DC06D12CB120462946BDE8F84FFFF724
:10346000D4BF6E48002DCCBF6D496E49BDE8F88FC2
:103470006D49814211DD6D498142D8BF4FF0FF3661
:103480006DDD20462946FFF757FF042808BFFFF7E8
:10349000C1FF20462946BDE8F88F6549654F25F0F4
:1034A0000045814233DD6449814219DD0026324600
:1034B0004FF080432046294600F060FC80468A4653
:1034C00001222046294601F0D2FA00223B4600F0B4
:1034D000ADFF4246534600F001FD04460D463EE076
:1034E00001260022BA463B462046294600F046FC0B
:1034F00080460F46002253462046294600F096FF9C
:1035000042463B4600F0EAFC04460D4627E04B49A4
:1035100081421BDDDFF828A1022600225346204607
:10352000294600F079FE00223B4600F027FC804649
:103530000F46002253462046294600F077FF4246B8
:103540003B4600F0CBFC04460D4608E0032622462D
:103550002B4600203B4900F0C1FC04460D462246A4
:103560002B461046194600F057FE8B46824602460F
:103570000B4600F051FE07460246334888460B468C
:1035800006217844FFF7ECFE52465B4600F044FE0D
:1035900082462E488B463A46434605217844FFF73B
:1035A000DFFE3A46434600F037FE02460B46002E49
:1035B000504659460CDA00F0E1FB22462B4600F05B
:1035C0002BFE01B022462B46BDE8F04F00F022BF93
:1035D00000F0D4FB22462B4600F01EFE1C4A7A4423
:1035E00002EBC603D3E9002300F020FF22462B465E
:1035F00000F01CFF174A7A4402EBC603D3E900230C
:1036000000F008FF009A002AB8BF81F00041BDE831
:10361000F88F0000000010440000F07F182D445483
:10362000FB21F93FFB21F9BF0000DC3F0000203EF9
:103630000000F33F0000F03F0000E63F0080034041
:103640000000F83F0000F0BF0A1E0000C81D000087
:10365000661D00002E1D00002DE9F04D9446CCF1B2
:10366000000423F000464CEA0404524F46EAD474A6
:103670009A46884621F00042BC4206D8454240EABC
:10368000050442EAD474BC4204D9BDE8F04D624658
:10369000FFF7BEBEAAF14055A5F17F6555EA0C04BF
:1036A0000BD0022404EAAA74434DDFF810E144EA87
:1036B000D87452EA000B04D00CE0BDE8F04DFFF7DF
:1036C000BBBE002C14BF012CBDE8F08D022C30D005
:1036D000032C32D056EA0C0B0AD0BE4220D1BA429B
:1036E00009D126F0804622F080423346114617E089
:1036F00000291ADB25E0DFF8C8B0FB44002C04BF2A
:10370000DBE90001BDE8F08D012C02BFDBE900011F
:1037100081F00041BDE8F08D022C0AD0032C0CD0C2
:10372000BA4212D1B8F1000F0BDA23482549BDE89F
:10373000F08D28462449BDE8F08D28467146BDE845
:10374000F08D1D482149BDE8F08D921B12153C2AD1
:10375000C4BF19481D490EDCBAF1000FBEBF12F1FB
:103760003C0F0020014606DB624600F0B7FB21F06B
:103770000041FFF761FE002C08BFBDE8F08D012C71
:1037800004BF81F00041BDE8F08D114A114B022CBD
:1037900007D000F04BFE2A46BDE8F04D0A4B00F082
:1037A00045BE00F043FE2A46BDE8F04D064B00F052
:1037B00031BE00000000F07F182D4454FB2109C0E9
:1037C000C21C0000FB21F9BFFB210940FB21F93F8E
:1037D000075C143326A6A13C70B50446064D802133
:1037E0002846FFF7A1FC0028F9D0E1B22846FFF7F0
:1037F0001BFD204670BD00000048004008B50121B7
:103800001020FEF7D9FF01210420FEF7D5FF482044
:103810008DF803004FF46040ADF8000003208DF8F0
:10382000020069460548FEF757F80120ADF8000090
:1038300069460348FEF750F808BD0000000C01403F
:103840000008014070B500F049F82349C86301241D
:10385000231F002207280BD2DFE800F027040B13F8
:103860001E393B004878002802D10A2088630B618A
:1038700070BD48780028FBD16FF0090088630B61A8
:1038800070BD487820B10128FAD10220087070BDBF
:1038900048694042086170BD487818B10128FAD1E2
:1038A0000C7070BD4869086170BD0A618A63487810
:1038B0000128F9D10878012802D14B695B1C4B61C2
:1038C000022802D14869401E48610A7070BD4C70E0
:1038D00070BD4A7070BD0000140000202DE9F04753
:1038E0000024214D01212846FEF778F8012800D157
:1038F0000124DFF878804FF4004631464046FEF759
:103900006DF8012800D102244FF480473946404623
:10391000FEF764F8012800D103244FF4005949460A
:103920004046FEF75BF8012800D104244946404692
:10393000FEF754F8012806D139464046FEF74EF806
:10394000012800D1052401212846FEF747F8012867
:1039500006D131464046FEF741F8012800D1062441
:103960002046BDE8F087000000080140001001403B
:103970001FB564486249CDE9021064486249CDE947
:103980000010002213466248FEF7B6F95D485C4914
:10399000CDE9021060485F49CDE900105C48002283
:1039A00013462038FEF7A8F94FF416515B48FEF78E
:1039B000F1FFFDF765FD00210C2359A20846FEF733
:1039C000F0FD0C2358A201210020FEF7EAFD0C2394
:1039D00057A202210020FEF7E4FDDFF834A1DFF852
:1039E00058814FF00C094FF0010BAAF1400ACDE9C4
:1039F000009B052300212820D8F81020FEF782FD27
:103A0000CDE9009B052301212820D8F81420FEF7DA
:103A100079FD0020CDE90090052398F801200221CE
:103A20002820FEF76FFD98F8010001284ED00C23E6
:103A300042A203210020FEF7B4FD0C2344A2002182
:103A40005520FEF7AEFD0C2341A201215520FEF7C3
:103A5000A8FD0C233EA202215520FEF7A2FDFFF790
:103A6000F1FEDAF8040000F0CBFD024628480B46D0
:103A70002038FEF751F900F04FF9C8F80800DAF8DD
:103A8000080000F0BDFD02460B462148FEF744F950
:103A900000F042F90646C8F80C00DAF8000000F021
:103AA000AFFD04460D46304600F0AAFD06460F461F
:103AB000D8F8080000F0A4FD02460B4626A0CDE988
:103AC0000067CDE90245FCF7BFFB90E70C2326A277
:103AD00003210020FEF765FD0C2328A200215520BC
:103AE000FEF75FFD0C2325A201215520FEF759FDAD
:103AF0000C2322A202215520FEF753FDAFE7000060
:103B00009A9999999999B93F7B14AE47E17A843F84
:103B1000A80000202D431CEBE2361A3F004800406D
:103B200053706565640000006261736556000000B3
:103B30004D6F64650000000014000020202020204C
:103B400020202020202020202020202000000000F5
:103B50002020202020000000252E33662C252E3327
:103B6000662C252E33660A002A2A2A2A2A2A2A2A7D
:103B70002A2A2A2A2A2A2A2A000000002A2A2A2A4D
:103B80002A00000010B50C46002808D001280DD1ED
:103B900000F00EF8A0B2BDE81040FEF771BE00F0D4
:103BA00017F8A0B2BDE81040FEF76ABE10BD0000D5
:103BB00010B5064C002210212046FDF71AFF2046C2
:103BC0000122BDE810402021FDF713BF000C014089
:103BD00010B5064C012210212046FDF70AFF2046B1
:103BE0000022BDE810402021FDF703BF000C01407A
:103BF00010B50C46002808D001280DD100F00EF8B1
:103C0000A0B2BDE81040FEF740BE00F017F8A0B229
:103C1000BDE81040FEF739BE10BD000010B5064CDF
:103C2000002210212046FDF7E4FE20460122BDE8D7
:103C300010402021FDF7DDBE0008014010B5064C04
:103C4000012210212046FDF7D4FE20460022BDE8C7
:103C500010402021FDF7CDBE00080140F8B501213C
:103C60000420FEF7A9FD01210820FEF7A5FD012192
:103C70000846FEF7A1FD01210D48FDF781FE102445
:103C80008DF803403025ADF8005003268DF8026012
:103C900069460848FDF720FE8DF80340ADF8005056
:103CA0008DF8026069460448FDF716FEF8BD000075
:103CB00000013000000C014000080140002805DD33
:103CC0004FF4C861884200DD0846704702498842C7
:103CD000FBDA084670470000C0F9FFFF03460120E9
:103CE00000E05843491EC9B2FBD2704710B5002905
:103CF0000AD00878002807D005487844FCF7ACFFC4
:103D0000002801D0002010BD0248784410BD0000FA
:103D1000821700007A17000021F00042A2F16052E1
:103D2000B2F5801F01F0004328BFD2F17F6C0BD9A0
:103D30005FEA001C43EAC20242EB507018BF7047B2
:103D400028BF20F001007047B2F5801FBCBF1846A5
:103D500070474FEA410C1CF5001F02D2084600F0E4
:103D6000D8BD70B500F002FB00000089FFF7F6BF78
:103D70004FF00040A0F580007047000010B591EAB8
:103D8000030F48BF83F0004300F15883841A71EB9E
:103D9000030C05D2121943EB0C03001B61EB0C0161
:103DA000DFF824E14FEA1154A4EB135C1EEA430F41
:103DB00018BF9EEA445F73D023EA0E03DCF1200EA5
:103DC00021EA045143F4801332D322FA0CFE10EBA3
:103DD0000E0023FA0CFE41EB0E01CCF1200E03FA8B
:103DE0000EFE10EB0E0051F10001B1F5801FCCF179
:103DF000200E32D201EB045112FA0EF2BDE810404F
:103E000058BF7047401C38BF5FEA420218BF704776
:103E1000002814BF20F0010041F100014FEA4103E6
:103E200013F5001F38BF7047A1F1C04100F0ECBA94
:103E3000012A43EB0302ACF1200CDCF11F0E32BF70
:103E40004FF0000E23FA0CF310EB030041EB04518A
:103E5000B4EB115FD0D0A1EB045101F580114908FA
:103E60005FEA300001EB04510ED350F1000038BF7F
:103E700012FA0EFE08D1BDE81040C9E7401C38BF59
:103E80005FEA4202CAD1C3E7BDE810404FEA4103EE
:103E900013F5001F38BF7047A1F1C04100F0B4BA5C
:103EA0009EEA445F08D011EA5E0FBDE8104004BFEF
:103EB00001F0004100207047BDE8104070B500F0EF
:103EC00055FA00BF64FBBE3E0000E0FF02494FF020
:103ED000000000F09ABD00BF0000F87F2DE9C0414E
:103EE00030B4DFF8A0C23CEA111418BF3CEA131446
:103EF00000F0EC8081EA03051CEA111444EAD57451
:103F000018BF1CEA131500F0C780A4EB05044FF09E
:103F1000004545EAC12145EAC32341EA505143EA3D
:103F2000525304F17F74994204F500344FEAC020E3
:103F30004FEAC22208BF904200F09C804FEA13650E
:103F40000FF24016765D4FEA134506FB05F7C7F101
:103F5000807706FB07F74FEAD737A7FB036876425F
:103F6000C8F58038A7FB06CE38BFA8F1010807FBCB
:103F700008E64FF0000EA6FB028CE6FB03CEDCF158
:103F8000000CCEF1004E38BFAEF1010EA6FB0C586E
:103F90004FF000074FF00005E6FB0E87A1FB08C6B7
:103FA000A0FB07CE16EB0E0645F10005E1FB076509
:103FB00015F1E04E7EBFA4F580345FEA46066D4100
:103FC00016F1800745F100054FEA17274FEA06660C
:103FD00047EA0567A6F1DE46B6F1805F4FEA152590
:103FE0001FD9384624F0010C05EBC471BCF1FE6FFB
:103FF00001EB0C1102D8F0BCBDE8008124425CBF8B
:1040000001F5801E9EEAC47F02D4F0BCBDE80081A9
:10401000244238D4F0BCA1F1C041BDE8004100F019
:10402000F3B94FEAD22242EA43524FEAD323A7FB25
:1040300002864FEAD02040EA415007FB03661EEAA1
:104040000E0F4FEAD12105FB026658BFA6EB0056C2
:10405000B6EB00564FEA520E4EEAC37E18EB0E0E38
:1040600056EB530EBDD518EB02085E417F1C55F18F
:104070000005B6E74FF480154FF000074FF000063B
:104080004FF00008ADE7F0BC4FF0000001F1C04177
:1040900001F00041BDE8008111EA0C1F0CEA131584
:1040A00000D00CE013EA0C1F00F025804FF0000058
:1040B000F0BC81EA030101F00041BDE80081F0BCE1
:1040C000BDE8004181EA030100F09EB9F0BCBDE803
:1040D000004170B500F04AF9097EFC3E00F007B8D7
:1040E00081EA03014FF0000001F00041704781EACE
:1040F000030100F089B9F0BCBDE800414FF00000B9
:1041000021497047FFFDFBF9F7F5F4F2F0EEEDEB16
:10411000E9E8E6E4E3E1E0DEDDDBDAD8D7D5D4D3C5
:10412000D1D0CFCDCCCBCAC8C7C6C5C4C2C1C0BF11
:10413000BEBDBCBBBAB9B8B7B6B5B4B3B2B1B0AF17
:10414000AEADACABAAA9A8A8A7A6A5A4A3A3A2A1FB
:10415000A09F9F9E9D9C9C9B9A99999897979695B6
:1041600095949393929191908F8F8E8E8D8C8C8B52
:104170008B8A8989888887878685858484838382DA
:10418000828181800000FF070000F87F4FEA410331
:104190004FEA5353A3F58063D3F11E03C8BFD3F195
:1041A000210C0CDD4FF0004242EAC12242EA50529B
:1041B00032FA03FC8CEAE17CACEBE1707047102B27
:1041C000C4BF0020704703F5787CBCF1FF3F04D0EA
:1041D0006FF0004282EA2100704770B500F0C6F827
:1041E0004992248000207047F2E710F0004248BF57
:1041F0004042B0FA80F310FA03F10AD0C3F11D0374
:1042000003F580634FEA415002EB035202EBD121E8
:1042100070474FF000007047DFF848C170B51CEAE6
:10422000111E1EBF1CEA13159EEA0C0F95EA0C0F17
:1042300000F06F8081EA030423EA4C134EEAD47E37
:1042400021EA4C1141F4801143F48013AE44A1FBE8
:10425000024CA0FB0365AEF17F7E361955EB0C05D1
:10426000A1FB034C4CF10003A0FB021C16EB0C0657
:10427000654153F10003094218BF46F0010613F4EB
:10428000007F0BD14FEA03314FEA0530340341EA96
:10429000155140EA16506FF003020AE04FEAC321BD
:1042A0004FEAC520F40241EA555140EA56506FF0FA
:1042B000020202EB2E4201EB025585EACE710AD0D2
:1042C0005FEA440C18BF24F0004450F1000041F1B3
:1042D000000120EAD47040F2FE7C624500D270BD3D
:1042E000A84214BF4FF080444FF04044002E08BF56
:1042F0000024BEF1806FA8BFA1F1C041BDE87040AD
:1043000080F282804FF0000001F1C04101F00041D5
:1043100070479EEA0C0F0CEA131518BF95EA0C0FB4
:1043200006D04FF0000081EA030E0EF0004170BD90
:1043300000F01CF88900013E00F007B800F009B851
:104340004FEA430C5FEA5C5C08D081EA030100F0AD
:104350005BB84FEA410C5FEA5C5CF6D14FF00000BD
:10436000014970470000FF070000F87F0EF1020EC0
:104370002EF0030E5EF8046B364205D4012A43EB9F
:10438000030515F5001F12D8012841EB010C1CF59F
:10439000001F0CD80ED14FEAD17C15F5001F0CEB95
:1043A0004C0C0CF1020C08BF4CEBD37C04E04FF03A
:1043B000080C01E04FEAD37C0CEB4C0526FA05F61D
:1043C00006F00706B6F1040C06D20EEB860CBDE82B
:1043D00070404CF0010C6047DFE80CF0090B020262
:1043E0004FF000414FF00000A1F5002170BD1946CB
:1043F0001046012851EB010418BFD4F5001484BF06
:10440000002001F0004170BD0808A0F500114FEA3E
:104410003101704791EA030F10B581F000413FF57B
:10442000B5AC83F0004300F009B8000010B591EA84
:10443000030F48BF83F000433FF5A8AC841A71EB2B
:10444000030C07D212198CF0004C43EB0C03001B39
:1044500061EB0C01DFF8A4E14FEA1154A4EB135C0B
:104460001EEA430F18BF9EEA445F00F0B08023EAC3
:104470006E03524221EA0451C3EB6E0338BF5B1E48
:10448000DCF1200E25D322FA0CFE10EB0E0043FACD
:104490000CFE41EB0E01CCF1200E03FA0EFE10EBE8
:1044A0000E0051F10001CCF1200E29D412FA0EF2C7
:1044B00001EB0451BDE8104058BF7047401C1CBFC1
:1044C000B2F1004F704700280CBF491C20F00100DA
:1044D000704712EB020E43EB030218BF4FF0010EC0
:1044E0004EEA4202ACF1200CDCF11E0E54D943FA24
:1044F0000CFE10EB0E0051F1FF31CCF11E0ED5D5A4
:104500000EF1010E12FA0EFE404141EB010101EBEA
:10451000445C5FEA5C5C10D910EBDE7001EB045187
:1045200038BFBEF1004FBDE8104018BF70470028EB
:104530000CBF491C20F00100704730D24FEAD42C48
:1045400011F5001124F400641BD0B1FA81F20B3A8A
:10455000A41AA41ED2F12003914030FA03F31943A8
:10456000904001EBCC71002C01EB0451BDE81040F0
:10457000A8BF704701F1C0414FF0000001F00041B9
:104580007047B0FA80F310FA03F100D110BDE41ABD
:10459000173C4805C90AE4E701EB045110BD491076
:1045A00001EB0451BDE810404FEA300002E04FF04B
:1045B000000170474A0008BF0042F8D0B2F5001F62
:1045C00028BF704701F000414FF0000070479EEA9D
:1045D000445F07D011EA5E0FBDE8104004BF002120
:1045E00000207047BDE8104070B5FFF7BFFE00BF68
:1045F00040DFF63E83F00041104670470000E0FFC8
:1046000043004FEAD30C4FEA3C0C43401FBF400726
:104610000CF1605113F0FE4F70471CF0006F03D196
:1046200000200CF0004170470CF0004343EA50704A
:1046300010B540EACC0000F026F900BF000000925F
:104640004FEA0001FFF7E0BE4FF000414FF00000DD
:10465000A1F500217047000090EA010F48BF81F0EA
:10466000004100F16281421A3CBF801A89184FEA6A
:10467000D0524FF07F4C1CEA410FA2EBD15318BF30
:104680009CEA026F00F03B804FF0004C4CEA0020A7
:104690004CEA012121FA03FC10EB0C0C1ED202F1B2
:1046A000FF325FEA1C2040EBC25038BF70471CF05D
:1046B0007F0F4FEA400C18BFBCF17F4F38BF7047E7
:1046C000C3F12003994008BF20F00100BCF17F4FE7
:1046D00038BF7047A0F1C04000F01BB94FEA3C0062
:1046E000000A40EBC25028BF1CF0FF0F4FEA400CFD
:1046F000E6D018BFBCF17F4F38BF7047EAE79CEAAD
:10470000026F05D010EA5C0F08BF00F00040704750
:1047100010B500F0B8F800BF64FBBE3E41000B0EC0
:10472000D3F19E0208D950F400034FEA032323FA81
:1047300002F048BF4042704710B500F0A4F800BF37
:1047400049922480002070476FF0004282EA2000E6
:104750007047000010F0004148BF4042B0FA80F3BB
:1047600010FA03F2C3F19D030BD051EAC35101EBE0
:104770001220530638BF704700F1010008BF20F037
:10478000010070474FF47F0C1CEAD0121EBF1CEAD8
:10479000D11392EA0C0F93EA0C0F00F0478090EAD5
:1047A000010F48BF42F480724FF0004C4CEA0020E9
:1047B0004CEA012102EB0302A0FB0113A2F5000267
:1047C000002918BF43F001035B0028BF4FEA330301
:1047D00042EB22425FEA132C4CEBC2502EBFBCEBE3
:1047E000436FB2F57C0F70474FEA036CBCF1004F8A
:1047F00008BF20F00100B2F57C0F38BF70470BD521
:1048000082F0FF0212F5803FC8BF704700F1C04040
:10481000D8BF00F00040704700F5000C5FEA4C0C78
:1048200048BF7047B0F1C04000F073B890EA010F84
:104830000CEAD11348BF42F48072624538BF634529
:1048400004D280EA010000F00040704710B500F08B
:104850001AF800BF8900013E00F007B800F009B85F
:104860005FEA410C5FEA1C6C08D080EA010000F0AE
:1048700050B85FEA400C5FEA1C6CF6D14FF0004084
:10488000A0F5800070470EF1020E2EF0030E5EF8C8
:10489000044B244204D44FEA4102B2F17F4F11D8B5
:1048A0004FEA4003B3F17F4F0CD80ED14FEAD07CD2
:1048B000B2F17F4F0CEB4C0C0CF1020C08BF4CEB2F
:1048C000D17C04E04FF0080C01E04FEAD17C0CEB06
:1048D0004C0324FA03F404F00704B4F1040C06D2E8
:1048E0000EEB840CBDE810404CF0010C6047DFE893
:1048F0000CF0070802024FF00040A0F5800010BD48
:104900000846420018BFD2F1807288BF00F0004014
:1049100010BDFF2141EAD050C005704790EA010F59
:1049200048BF81F000413FF59EAE421A04D882F0A4
:104930000042A0EB020011444FEAD0524FF07F4CEE
:104940001CEA410FA2EBD15318BF9CEA026F4AD078
:104950004FF0004C4CEA00204CEA012121FA03FC04
:10496000B0EB0C0C0FD412F0FE0F36D05FEA4C0007
:104970001DD5001240EBC25038BF70471CF03F0FEE
:1049800018BF70470BE0A2F101025FEA1C2040EB68
:10499000C25038BF70471CF07F0F18BF7047C3F17B
:1049A0002003994014BF401E20F00100704780088A
:1049B0004FEA122308BF7047B0FA80FCA2EB0C024A
:1049C000CCF1280C60FA0CF093EA122F04BF00EB34
:1049D000C25070474FEAC3707047130A5FEADC1099
:1049E00008BF7047F6E79CEA026F04D010EA5C0F3C
:1049F00008BF0020704710B5FFF745FF40DFF63EC7
:104A000081F000407047FBF74DBE0CF00F03092BFF
:104A100008BF082000F059800A2B0BD0082B18BFC4
:104A2000704708BF1CF0400F0AD04FF000004FF055
:104A3000000170471CF0400F18BF4FF00040704756
:104A40001CF0100F08D020F0704300F07F4242EAC3
:104A5000D3014FEA4370704700F0604021F07F427D
:104A600042EA000201F07F4040EA727070474FF066
:104A7000FF0C4CF4E06C1CEA11531CBF9CEA030CC5
:104A80009445C2BFDA4201EB02517047002B0DD0B2
:104A9000BCF1000F0FD0002A01F00041A4BF41F08B
:104AA000E04141F07F614FF00000704701F00041AC
:104AB0004FF00000704750EA01334FF09B0C18BFD5
:104AC0004CF0806C7FF402AA70471CF4801F11D058
:104AD0001CF4E02F03D06FEACC31490070474FF04F
:104AE0004050EFF3008222F0704242EA000282F36B
:104AF000008870474FF00000704700000000000081
:104B00000000002F000000000700070000147F14C1
:104B10007F1400242A7F2A120062640813230036BF
:104B20004955225000000503000000001C224100EE
:104B3000000041221C000014083E08140008083E32
:104B40000808000000A0600000080808080800002D
:104B500060600000002010080402003E5149453EFC
:104B60000000427F4000004261514946002141451A
:104B70004B31001814127F10002745454539003C81
:104B80004A4949300001710905030036494949364F
:104B900000064949291E000036360000000056363E
:104BA0000000000814224100001414141414000022
:104BB0004122140800020151090600324959513EB0
:104BC000007C1211127C007F49494936003E414168
:104BD0004122007F4141221C007F49494941007F19
:104BE00009090901003E4149497A007F0808087F08
:104BF0000000417F4100002040413F01007F081438
:104C00002241007F40404040007F020C027F007F35
:104C10000408107F003E4141413E007F090909061A
:104C2000003E4151215E007F09192946004649494D
:104C300049310001017F0101003F4040403F001F1A
:104C40002040201F003F4038403F00631408146399
:104C500000070870080700615149454300007F4183
:104C6000410000552A552A55000041417F000004AB
:104C700002010204004040404040000001020400E4
:104C8000002054545478007F484444380038444449
:104C9000442000384444487F0038545454180008D5
:104CA0007E0901020018A4A4A47C007F08040478F3
:104CB0000000447D4000004080847D00007F10287B
:104CC00044000000417F4000007C04180478007C10
:104CD0000804047800384444443800FC2424241890
:104CE0000018242418FC007C0804040800485454CC
:104CF000542000043F444020003C4040207C001CE5
:104D00002040201C003C4030403C004428102844F7
:104D1000001CA0A0A07C004464544C44141414143F
:104D2000141400000000000000000000000000005B
:104D30000000000000F80000000000000033300018
:104D4000000000100C06100C06000000000000001F
:104D5000000040C07840C0784000043F04043F0495
:104D60000400007088FC08300000001820FF211E9D
:104D70000000F008F000E018000000211C031E21D4
:104D80001E0000F00888700000001E21232419274F
:104D9000211010160E0000000000000000000000AE
:104DA0000000000000E018040200000000071820C6
:104DB000400000020418E000000000402018070036
:104DC0000000404080F0804040000202010F0102DC
:104DD0000200000000F0000000000101011F0101BD
:104DE0000100000000000000000080B07000000022
:104DF00000000000000000000000000101010101AE
:104E00000101000000000000000000303000000040
:104E10000000000000008060180400601806010017
:104E2000000000E010080810E000000F1020201023
:104E30000F00001010F8000000000020203F20208C
:104E40000000007008080888700000302824222123
:104E500030000030088888483000001820202011D9
:104E60000E000000C02010F8000000070424243FBA
:104E7000240000F808888808080000192120201163
:104E80000E0000E0108888180000000F112020118B
:104E90000E0000380808C83808000000003F000075
:104EA00000000070880808887000001C2221212260
:104EB0001C0000E010080810E00000003122221160
:104EC0000F00000000C0C0000000000000303000F3
:104ED0000000000000800000000000008060000072
:104EE00000000000804020100800000102040810AB
:104EF00020004040404040404000040404040404BA
:104F00000400000810204080000000201008040267
:104F10000100007048080808F00000000030360169
:104F20000000C030C828E810E00007182724231428
:104F30000B000000C038E0000000203C23020227E4
:104F4000382008F8888888700000203F2020201131
:104F50000E00C0300808080838000718202020106C
:104F6000080008F808080810E000203F2020201062
:104F70000F0008F88888E8081000203F2020232030
:104F8000180008F88888E8081000203F2000030077
:104F90000000C03008080838000007182020221E32
:104FA000020008F808000008F808203F210101214C
:104FB0003F20000808F8080800000020203F2020BB
:104FC000000000000808F8080800C08080807F000A
:104FD000000008F888C028180800203F2001263863
:104FE000200008F8080000000000203F20202020BA
:104FF000300008F8F800F8F80800203F003F003FB4
:10500000200008F830C00008F808203F20000718EA
:105010003F00E01008080810E0000F1020202010CA
:105020000F0008F808080808F000203F21010101DE
:105030000000E01008080810E0000F182424385081
:105040004F0008F8888888887000203F2000030CF3
:1050500030200070880808083800003820212122FC
:105060001C00180808F8080818000000203F20005D
:10507000000008F808000008F808001F2020202081
:105080001F000878880000C83808000007380E01A3
:105090000000F80800F80008F800033C0700073C8F
:1050A0000300081868808068180820302C03032C3F
:1050B00030200838C800C83808000000203F200011
:1050C000000010080808C8380800203826212020D1
:1050D0001800000000FE020202000000007F4040B5
:1050E0004000000C30C00000000000000001063845
:1050F000C00000020202FE000000004040407F00AD
:105100000000000004020202040000000000000091
:10511000000000000000000000008080808080808F
:105120008080000202040000000000000000000077
:1051300000000000808080800000001924222222CC
:105140003F2008F8008080000000003F112020115F
:105150000E000000008080800000000E1120202042
:105160001100000000808088F800000E112020103F
:105170003F200000808080800000001F2222222229
:105180001300008080F0888888180020203F2020AD
:1051900000000000808080808000006B94949493D5
:1051A000600008F8008080800000203F210000207F
:1051B0003F2000809898000000000020203F202021
:1051C0000000000000809898000000C08080807F70
:1051D000000008F8000080808000203F24022D306D
:1051E0002000000808F8000000000020203F2020D8
:1051F00000008080808080808000203F20003F2051
:10520000003F8080008080800000203F210000203F
:105210003F200000808080800000001F2020202090
:105220001F00808000808000000080FFA1202011EE
:105230000E000000008080808000000E112020A061
:10524000FF80808080008080800020203F2120001F
:10525000010000008080808080000033242424240A
:105260001900008080E0808000000000001F2020E6
:1052700000008080000000808000001F202020109F
:105280003F20808080000080808000010E30080672
:10529000010080800080008080800F300C030C3083
:1052A0000F0000808000808080000020312E0E31B1
:1052B0002000808080000080808080818E701806B1
:1052C000010000808080808080000021302C22211D
:1052D000300000000000807C020200000000003F5F
:1052E000404000000000FF00000000000000FF0040
:1052F00000000002027C800000000040403F0000EF
:105300000000000601010202040400000000000089
:10531000000004000008000000000000000200017E
:1053200000001000000000004FBB610567ACDD3FCE
:10533000182D4454FB21E93F9BF681D20B73EF3FBC
:10534000182D4454FB21F93FE2652F227F2B7A3C34
:10535000075C143326A6813CBDCBF07A8807703CED
:10536000075C143326A6913CC4EB98999999C9BF60
:10537000711623FEC671BCBF6D9A74AFF2B0B3BF95
:105380009AFDDE522DDEADBF2F6C6A2C44B4A2BF55
:105390000D5555555555D53FFF8300922449C23FC1
:1053A0006E204CC5CD45B73F513DD0A0660DB13FF5
:1053B000EB0D76244B7BA93F11DA22E33AAD903F07
:1053C000000000000000000002400000000000A0FB
:1053D0000000000005400000000000C800000000C0
:1053E0000C4000000000409C00000000194000003C
:1053F0000020BCBE0000000034400000BFC91B8E6E
:1054000000000004B5400000504BCFD06607E2CF4B
:10541000010000006C4100003E8251AADFEEA7347B
:1054200001000000D9420000DCB5A0E23A301F972D
:10543000FFFFFFFFB4450000FD25A0C8E9A3C14F51
:10544000FFFFFFFFFF3F00000000008000000000A2
:10545000FF3F00000000008000000000985400089A
:10546000000000206400000028010008FC5400082F
:1054700064000020E4060000440100081C00000055
:1054800043000000F8FFFFFF0C0000000E000000CA
:105490000F0000002E0000000204060800000000BB
:1054A00001020304010203040607080900000000CA
:1054B00000000000000000000000000000000000EC
:1054C000050000000000B0425C8FC23E00000000FA
:1054D000000000000000B0425C8FC23E00000000EF
:1054E00000000000000000000000000000000000BC
:0C54F000000000000000000000000000B0
:04000005080000ED02
:00000001FF
